:100000000C9435000C945D000C945D000C945D0024
:100010000C945D000C945D000C945D000C945D00EC
:100020000C945D000C945D000C945D000C945D00DC
:100030000C945D000C945D000C945D000C945D00CC
:100040000C9489010C945D000C94F9010C94D3017B
:100050000C945D000C945D000C945D000C945D00AC
:100060000C945D000C945D00040311241FBECFEFBF
:10007000D8E0DEBFCDBF11E0A0E0B1E0E2ECF6E0F9
:1000800002C005900D92AE33B107D9F721E0AEE37F
:10009000B1E001C01D92A43EB207E1F710E0C5E354
:1000A000D0E004C02197FE010E945903C433D10758
:1000B000C9F70E942B020C945F030C940000AF92CE
:1000C000BF92CF92DF92EF92FF920F931F93CF9345
:1000D000DF936C017B018B01040F151FEB015E01A7
:1000E000AE18BF08C017D10759F06991D601ED913C
:1000F000FC910190F081E02DC6010995892B79F7DB
:10010000C501DF91CF911F910F91FF90EF90DF908C
:10011000CF90BF90AF900895FC01538D448D252F53
:1001200030E0842F90E0821B930B541710F0CF9691
:10013000089501970895FC01918D828D981761F0C3
:10014000A28DAE0FBF2FB11D5D968C91928D9F5FDA
:100150009F73928F90E008958FEF9FEF0895FC01B9
:10016000918D828D981731F0828DE80FF11D858D6C
:1001700090E008958FEF9FEF0895FC01918D228DFF
:10018000892F90E0805C9F4F821B91098F73992784
:10019000089587E491E00E94BD0021E0892B09F4D5
:1001A00020E0822F089580E090E0892B29F00E94C2
:1001B000C90081110C9400000895FC01A48DA80FC2
:1001C000B92FB11DA35ABF4F2C91848D90E0019699
:1001D0008F739927848FA689B7892C93A089B189B9
:1001E0008C91837080648C93938D848D981306C05A
:1001F0000288F389E02D80818F7D80830895EF92BE
:10020000FF920F931F93CF93DF93EC0181E0888FD0
:100210009B8D8C8D98131AC0E889F989808185FFA0
:1002200015C09FB7F894EE89FF896083E889F98942
:1002300080818370806480839FBF81E090E0DF9144
:10024000CF911F910F91FF90EF900895F62E0B8D97
:1002500010E00F5F1F4F0F731127E02E8C8D8E1152
:100260000CC00FB607FCFACFE889F989808185FFB9
:10027000F5CFCE010E94DD00F1CFEB8DEC0FFD2F0D
:10028000F11DE35AFF4FF0829FB7F8940B8FEA8974
:10029000FB8980818062CFCFCF93DF93EC01888D83
:1002A0008823B9F0AA89BB89E889F9898C9185FDF1
:1002B00003C0808186FD0DC00FB607FCF7CF8C917F
:1002C00085FFF2CF808185FFEDCFCE010E94DD005A
:1002D000E9CFDF91CF910895CF93DF93FC01019097
:1002E0000020E9F73197AF01481B590BBC0187E4A7
:1002F00091E00E945F00EC0142E050E062E171E0B9
:1003000087E491E00E945F008C0F9D1FDF91CF91E9
:1003100008951F920F920FB60F9211242F933F93BF
:100320008F939F93AF93BF9380914301909144012A
:10033000A0914501B09146013091420123E0230F85
:100340002D3758F50196A11DB11D209342018093D0
:10035000430190934401A0934501B09346018091DD
:100360003E0190913F01A0914001B0914101019661
:10037000A11DB11D80933E0190933F01A0934001C8
:10038000B0934101BF91AF919F918F913F912F9178
:100390000F900FBE0F901F90189526E8230F02961E
:1003A000A11DB11DD2CF1F920F920FB60F92112433
:1003B0002F933F934F935F936F937F938F939F936D
:1003C000AF93BF93EF93FF9387E491E00E94DD002A
:1003D000FF91EF91BF91AF919F918F917F916F911D
:1003E0005F914F913F912F910F900FBE0F901F90F3
:1003F00018951F920F920FB60F9211242F938F937F
:100400009F93EF93FF93E0915701F0915801808102
:10041000E0915D01F0915E0182FD1BC090818091B1
:1004200060018F5F8F7320916101821741F0E0912D
:100430006001F0E0E95BFE4F958F80936001FF91D2
:10044000EF919F918F912F910F900FBE0F901F9062
:1004500018958081F4CFCF93DF93CDB7DEB7C15429
:10046000D1090FB6F894DEBF0FBECDBF789484B526
:10047000826084BD84B5816084BD85B5826085BDA0
:1004800085B5816085BD80916E00816080936E002E
:100490001092810080918100826080938100809120
:1004A00081008160809381008091800081608093D1
:1004B00080008091B10084608093B1008091B00091
:1004C00081608093B00080917A00846080937A008C
:1004D00080917A00826080937A0080917A008160B6
:1004E00080937A0080917A00806880937A001092DD
:1004F000C100E0915701F091580182E08083E091C2
:100500005301F09154011082E0915501F091560190
:100510008FEC808310925F01E0915B01F0915C01B0
:1005200086E08083E0915901F0915A0180818061D9
:100530008083E0915901F0915A0180818860808325
:10054000E0915901F0915A01808180688083E091A7
:100550005901F0915A0180818F7D808385E0EBE124
:10056000F1E0DE01DD9601900D928A95E1F78EE1D2
:10057000E0E2F1E0DE015F9601900D928A95E1F7ED
:10058000FE017F96DF010D900020E9F711978D01A4
:100590000E1B1F0B5E018DE3A80EB11CD5010D9043
:1005A0000020E9F79D01215031092A193B09CE01AC
:1005B00001966C01F12CE12C4C01E016F1068CF453
:1005C0004191C701B9010E943103D501A80FB91F9C
:1005D0008C918427D6018D936D01BFEFEB1AFB0A36
:1005E000ECCF85E191E00E946C01C4010E946C0196
:1005F00000E010E001151105E9F30E94C90088230D
:10060000C9F30E940000F6CFE7E4F1E01382128202
:1006100088EE93E0A0E0B0E084839583A683B7835F
:1006200084E091E09183808385EC90E095878487D6
:1006300084EC90E09787868780EC90E0918B808BAC
:1006400081EC90E0938B828B82EC90E0958B848B95
:1006500086EC90E0978B868B118E128E138E148E03
:10066000089597FB072E16F4009407D077FD09D064
:100670000E94450307FC05D03EF4909581959F4F5D
:100680000895709561957F4F0895AA1BBB1B51E19A
:1006900007C0AA1FBB1FA617B70710F0A61BB70BF2
:1006A000881F991F5A95A9F780959095BC01CD0197
:1006B0000895EE0FFF1F0590F491E02D0994F89432
:0206C000FFCF6A
:1006C20000000000FF005F008C004C01BD009B0099
:1006D200AF000D0A00466C61673A00133720240010
:1006E20078454451685B1317676814567742114A7C
:0E06F200236811574C034D1069064E436E00ED
:00000001FF
